:0600000024EF06F01200DF
:0600080004EF08F01200F5
:100018000CEF08F012001DEE00F02DEE00F0F86A6B
:0600280040EF06F012009B
:1000300001000E0E0000E6000000020000003E0E6F
:10004000006E016AFC0E026E036A046A07680868A3
:100050000968066A1200D9CFE6FFE1CFD9FFE65260
:1000600004501EE1040108BF1AD0400EE66E600E77
:10007000E66E000EE66E34EC05F0E552E552E55210
:10008000010E046EDF6A400EDF5C09E2DF50EA6AAF
:10009000A00FE96E000EEA22EF6ADF2AF4D717D12B
:1000A00000016051080A01E10DD10F0A01E1D3D02E
:1000B000010A01E1CAD0030A67E0010A58E0070A11
:1000C00044E0010A01E003D10001020EA06F00012B
:1000D0003A0EA16F0001010EA26F0001010EA36F85
:1000E0000001A46B100EA56FA66BA76B01C0A8F052
:1000F00002C0A9F003C0AAF0100E0001A95F000E13
:100100000001AA5B0001AB6B0001030EAC6F0001A4
:10011000F80EAD6FAE69AF6BB06B0001080EB16F3A
:10012000B26BB36BB46B0001B56904010CBF0CD0AA
:10013000400EE66EA00EE66E000EE66E04EC05F0D4
:10014000E552E552E552046AC2D00001615107E16F
:100150003F0E006EF80E016E0268036A06D03E0E76
:10016000006E016AFC0E026E036A046AB0D0040ECF
:10017000056E0028055C06E20400AED88EEC05F0A2
:10018000052AF7D7046AA3D0E868071805E1E868EC
:10019000081802E1E868091806E161C007F062C0CA
:1001A00008F063C009F007500001611908E1085028
:1001B0000001621904E109500001631900E143E103
:1001C000DF6A00016551DF5C3EE2000E075C100E45
:1001D0000858000E09582CE30028596E5A6A0A0E76
:1001E000D89059365A36E806FBE15B6A5ABE5B681E
:1001F0005950075C5A5008585B50095819E23A0E9A
:100200000001D8806555DF24EA6A660FE96E000EAA
:10021000EA22EF50E66E0650E96EEA6AE9BEEA6845
:100220000A0EE926000EEA22E552E750EF6E062A92
:10023000072A000E0822000E09223A0E065C01E190
:100240005ED8DF2ABED7046A42D059D8076808684A
:100250000968046A3CD00001070EA06F61C0A1F0DC
:1002600062C0A2F063C0A3F064C0A4F065C0A5F0B2
:1002700061C0F6FF62C0F7FF63C0F8FFDF6A0001EC
:100280006551DF5C0FE209003A0E0001D880655528
:10029000DF24EA6AA60FE96E000EEA22F5CFEFFF2F
:1002A000DF2AEDD704010CBF0CD0400EE66EA00E85
:1002B000E66E000EE66E04EC05F0E552E552E552FE
:1002C000046A05D06592656A68D8FF0000D0E552DF
:1002D000E552E7CFD9FF1200F66A0550F76EF86ACB
:1002E000D890F736F836F736F836140EA66EF29E2A
:1002F000550EA76EAA0EA76EA682A6941200D9CF9D
:10030000E6FFE1CFD9FFE652DF6A000EE76E06187E
:10031000E8AE02D0063403D0E750D880065436E267
:100320000650596E5A6A5B6A59AE02D05A685B68C9
:100330005950075CF66E5A500858F76E5B500958D2
:10034000F86EDF50EA6A0A0FE96E000EEA22EF50FB
:10035000F56E0D00DF2A0606065009E0DF50EA6A56
:100360000A0FE96E000EEA22EF50F56E01D0F56833
:100370000C00DF2A240EA66EF29E550EA76EAA0E62
:10038000A76EA682065001E00606BFD7A694066AAD
:10039000E552E552E7CFD9FF1200D9CFE6FFE1CF12
:1003A000D9FFE652DF6AFF0EDF5C0AE2E868E85038
:1003B00005E0E80600D000D000D0F9D7DF2AF3D757
:1003C000E552E552E7CFD9FF12005FD9E6526450FB
:1003D00032E16296040100513C0BE842E8420D080C
:1003E00028E1180E021923E1040E031920E1100E72
:1003F000026F040E036FDF6ADF50596E5A6A080EEF
:10040000595C000E5A5813E2DF50EA6A180FE96E81
:10041000040EEA22EF50E66EDF50EA6A100FE96E32
:10042000040EEA22E552E750EF6EDF2AE5D70ED838
:100430000AD03DD808D0040E645C03E162964DD822
:1004400002D0000E01D0010EE55224D11ED9E65291
:10045000040104BF046B536A4F6A506A516A526ABE
:1004600055EC03F0DF6ADF50596E5A6A010E595C91
:10047000000E5A5819E2505017E1F76ADF34FE0BAC
:10048000F736F66EEC0EF6260D0EF7220900F5CFC4
:1004900059F00800F5CF5AF004D05AC0FAFF59506D
:1004A000F96EFBDFDF2ADFD79ED8E552F3D0020ECC
:1004B0004F5C0EE176D80401180E026F040E036F34
:1004C000080E016F00BD02D0C80E05D0880E03D003
:1004D000BCD8CCD88C0E006F1200040E555C0AE11B
:1004E00012C438FF0F013851000802E2050E01D096
:1004F000030E556E4F040FE110D8020E535C03E15A
:100500000401840E06D0040104BD02D0C80E01D03F
:10051000880E046F120025EF03F0B7D8020EE12613
:10052000080E515C000E52580DE251C0DEFF52C061
:10053000DDFF535002E1010E03D0530406E1020E29
:10054000536E03D0080EDE6EDD6A0401049304913D
:10055000010EDB500413DFCF05F4DE50515EDD5099
:10056000525A0001180EE26F040EE36F56A20CD02F
:1005700085D810E0E0C0F6FFE1C0F7FF0800F550B5
:1005800068D8F6E2DB06F4D779D804E087D8FCE235
:10059000DB06FAD7020EE15C02E2E16AE552E16EA7
:1005A00079D073D8020EE126030E04010015E76E20
:1005B000010EE7CFDBFF01C4DFFFDE505126DD5027
:1005C00052220001180EE06F040EE16F57D804E0CC
:1005D00065D8FCE2DB06FAD7020EE15C02E2E16AD2
:1005E000E552E16E57D06598505005E13FD8840E32
:1005F000006F040118D0040110AF17D05150165DE0
:100600005250175904E216C451F017C452F085DF56
:10061000010E4F6E2BD8800E006F0401180E066F6E
:10062000040E076FC80E046F1200020E4F6E040115
:10063000056BC80E046F0401080E016F180E026FDF
:10064000040E036FC80E006F12004F6A0401046BA2
:100650001200E2C0E9FFE3C0EAFFEF6EE22B000EFA
:10066000E323E02BE123DF06010E12000401080E54
:10067000016F100E026F040E036F1200D9CFE9FF55
:10068000DACFEAFFEE50ED101200D9CFE6FFE1CF4E
:10069000D9FF1200E552E7CFD9FF1200E0C0E9FF11
:1006A000E1C0EAFFEF5029EF03F004011051600BA5
:1006B000E842E842E842E842E842000901E012006C
:1006C0001151070A43E00B0A41E0070A34E0010A2E
:1006D00024E00B0A20E0020A1EE0030A1AE0080ADE
:1006E00010E0010A0CE00F0A08E0030A01E0120022
:1006F000010E506E040E556E1200A7EF03F0DDEFF1
:1007000003F0010E506E0001570EE06F000EE16F16
:100710000ED0F7EF03F025EF04F0010E506E1451E8
:100720000001E06FE16B580EE027000EE1235692C6
:10073000010E516E1200010E506E1451EA6A580FEC
:10074000E96E000EEA2212C4EFFF12001200800EC2
:100750000401105D31E11351030A20E0010A0BE0AE
:10076000030A29E1010E506E00012C0EE06F0D0E00
:10077000E16F120E1ED0AAD8E20EF6260D0EB8D8E2
:10078000020E0001F76AE025F66EE151F72209003A
:10079000F5CF51F00A00F5CF52F00DD097D8E60E04
:1007A000F6260D0EA5D8E0C0F6FFE1C0F7FF080061
:1007B000F550516E526A56821200010E506E0F0EA5
:1007C000E66E270EE66E0F0E9BD8010EE66E580EF3
:1007D000E66E000E95D812C457F00401125103E1E1
:1007E000050E556E1200060E556EEFEF04F0040173
:1007F000186B196B040110511F0B020A0EE0030A5B
:1008000009E0010A17E1010E506E56A013D0040151
:10081000188310D0010E506E0DD04AD801E0010EA1
:100820005ED8E2C0E9FFEA6EEF50040B03E004017A
:10083000010E186F500408E10001180EE06F040E5D
:10084000E16F5692020E516E1200040112050CE186
:1008500010511F0B000908E1010E506E030E115DCF
:1008600002E1568001D05690125121E110511F0B28
:1008700002081DE114510F0B000919E019D801E01D
:10088000010E2DD8030E0401115D02E1840E03D088
:1008900014AF07D0400EE2C0E9FFE3C0EAFFEF6EFD
:1008A0001200880EE2C0E9FFE3C0EAFFEF6E12001B
:1008B000010E506E14510F0B080DF3505A6A000FC1
:1008C000596E040E5A221451800B1200010E506E04
:1008D0001251F66EF76AD890F636F7361200040D0C
:1008E000F35000015924E26F000E5A20E36F12000A
:1008F000F7220900F5CFE0F00A00F5CFE1F0120091
:10090000E66E0FEC06F0E552E552E55212000401E6
:1009100010511F0B010801E01200145101E01200F8
:10092000060E115D21E11351230A1DE0010A0DE0BD
:10093000030A19E1020E506E570405E10001500E42
:10094000E06F0D0EE16F090E0CD0020E506E5704D1
:1009500005E10001C50EE06F0D0EE16F570403E1E4
:100960001D0E516E526A568204011051600BE8420E
:10097000E842E842E842E842010801E01200115171
:100980000B0A26E0080A19E0090A12E0080A09E041
:100990000B0A05E0080A01E01200EDEF04F0EEEFAB
:1009A00004F0020E506E00014A0EE06F000E0BD0F4
:1009B000020E506E13C44AF01200020E506E000177
:1009C0004B0EE06F000EE16F5692010E516E120059
:1009D000020E506E12C44BF01200120012004C6A4C
:1009E0000F011E0E276F0401400E096F200E0A6FC3
:1009F000040E0B6F880E086F0401600E0E6F040E5C
:100A00000F6F400E0C6F1200D9CFE6FFE1CFD9FF78
:100A1000E652FC0EDB50400805E2400EF36EFC0E81
:100A2000F3CFDBFFDF6AFC0EDB50DF5C0FE2DF5051
:100A30004DD8EF50E66EDF50EA6A600FE96E040EA3
:100A4000EA22E552E750EF6EDF2AEDD7FC0EDBCF4E
:100A50000DF4400E04010C170C7D880E0C13E552AA
:100A6000E552E7CFD9FF1200D9CFE6FFE1CFD9FF9A
:100A70004C6A040108BF25D0FC0EDBCF59F00951A8
:100A8000D880595403E2FC0E09C4DBFF4C6AFC0E0B
:100A9000DB504C5C0FE24C50EA6A200FE96E040E0A
:100AA000EA22EF50E66E4C5011D8E552E750EF6E57
:100AB0004C2AEDD70401400E096F0817087D880EF7
:100AC00008134C50E552E7CFD9FF1200E76EFD0E38
:100AD000DBCFE9FFFE0EDBCFEAFFE750E926000E91
:100AE000EA22120065A60CD8550409E165BA07D0C0
:100AF000626A0F01366B36813689020E556E12001E
:100B0000656A0F01366B6586010E556E1200656AC7
:100B10000F01366B556A120087EF05F0555001E161
:100B200012006250040B05E00F013651040B01E086
:100B300032D865B212006250010B05E00F01365148
:100B4000010B01E03BD86250100B05E00F0136515C
:100B5000100B01E01FD86250200B05E00F01365149
:100B6000200B01E019D8030E555C01E21200546A13
:100B7000040E545C0EE26250080B0BE00F0136517C
:100B8000080B07E0E5EC01F0000901E16296542A48
:100B9000EFD71200120012000F0126A10DD0800E17
:100BA0000401005D07E1840E0401045D03E104011A
:100BB0008C0E006F0F012691629A1200636A626ABE
:100BC0000F019F0E376F0F017B0E366F0F01386BD1
:100BD0000F0EE66E270EE66E0F0EE66E20D8E5527B
:100BE000E552E5520F01160E266F62A605D06296F9
:100BF00000D000D00000F9D7659825EC03F004017F
:100C0000080E016F0401100E026F040E036F040141
:100C10008C0E006F5690576A030E556E1200D9CF96
:100C2000E6FFE1CFD9FFFD0EDBCFE9FFFE0EDBCF04
:100C3000EAFFFC0EDB5004E0EE6AFC0EDB06F9D79F
:100C4000E552E7CFD9FF12001DEE00F02DEE00F0C7
:100C5000F86AF66A100EF76E0800F550FF0808E112
:100C6000010EF66E100EF76E0800F550FF0806E054
:100C700080AE02D000EF08F080AEFED701D812009F
:100C80000DD8040032D835D8060E555C05E1655004
:100C9000020B02E12BEC00F0F4D71200600ED36ED1
:100CA0009B8C580E4D6E020E4E6E4DC059F04EC0CC
:100CB0005AF04D06000E4E5A59505A10F6E165A6EC
:100CC00004D06592656ACDEC01F00F01140E396F06
:100CD000556A566A576A1FEC00F08C968C9495966C
:100CE00095940F01486B496B120072EC05F08EEF82
:100CF00005F0060E555C02E28C868C94060E555C5F
:100D000014E10001200EE65D4E0EE75902E38C86E9
:100D10008C94400EE65D9C0EE75904E38C968C841F
:100D2000E66BE76BE62B000EE723120012010002D0
:100D300000000008D8043C00020001020001090282
:100D40002900010100C03209040000020300000074
:100D5000092111010001221D000705810340000146
:100D6000070501034000010403090434034D006931
:100D700000630072006F006300680069007000206B
:100D80000054006500630068006E006F006C006F27
:100D90000067007900200049006E0063002E0026E5
:100DA0000348004900440020005500530042002041
:100DB0000042006F006F0074006C006F00610064FF
:100DC00000650072000600FF0901A1011901294018
:100DD000150026FF007508954081001901294091F2
:100DE00000C03E0D3E0D670D6B0D9F0D0E09C00E30
:100DF000F36E00EE00F00E0E01D81200EA6002D091
:100E0000EE6AFCD7F350E9601200EE6AFCD70000EE
:0610000048EF66F012004B
:0610080074EF24F0120059
:06101800CBEF3AF01200DC
:10102A00040072CD000000050000E9000000EFCCCA
:10103A000000B70E00000100000070CD0000FE04A1
:10104A00000002000000F2CC0000800200007E00D6
:10105A000000020100000000000132000000000050
:10106A000180004D00000002000000000000013273
:10107A00000000000001A700FBFFDFFF015700EF9F
:10108A00FF0400014E00F2FF0700014C00F3FF08C5
:10109A0000014A00F5FF0A00014400F8FF0B0001B5
:1010AA004800FAFF0D00014E00FCFF0F000150003E
:1010BA00FFFF100001320000000A00012E000200AA
:1010CA00090001330002000A00012D000400080093
:1010DA00012D0004000800012F000500080001315D
:1010EA000007000700012E00070006000132000871
:1010FA00000600013300090005000136000A000459
:10110A00000134000A0003000139000B000300014A
:10111A003D000C0002000141000D000100014600E3
:10112A000E0001000146000E00FFFF0141000D0004
:10113A00FFFF013D000C00FEFF013E000C00FDFF19
:10114A000139000B00FDFF0136000A00FCFF0133E4
:10115A00000900FBFF0132000800FAFF0135000810
:10116A0000F9FF012E000600F9FF012E000600F922
:10117A00FF012D000400F8FF012D000400F8FF0113
:10118A002E000200F7FF012E000200F7FF013200D5
:10119A000000F6FF012D000000F7FF012E00FEFF00
:1011AA00F7FF012900FEFFF8FF012B00FDFFF8FF02
:1011BA00012F00FBFFF8FF012B00FBFFF9FF0131B4
:1011CA0000F9FFF9FF012E00F9FFFAFF013200F8DA
:1011DA00FFFAFF013300F7FFFBFF013600F6FFFCC1
:1011EA00FF013900F5FFFDFF013900F5FFFDFF01A1
:1011FA003D00F4FFFEFF014100F3FFFFFF0146003F
:10120A00F2FFFFFF013200F6FF010001C6020000F3
:10121A008E00015B00EEFFFEFF015100F0FFFDFFB3
:10122A00014800F3FFFAFF014100F5FFF9FF013C15
:10123A0000F7FFF8FF013A00FAFFF6FF013600FC5B
:10124A00FFF6FF013C00FFFFF4FF0128000100F850
:10125A00FF0129000200F8FF0126000300F9FF013F
:10126A002B000500F9FF012E000700FAFF012F00ED
:10127A000800FBFF0133000900FBFF013F000C00DF
:10128A00FCFF010000000000000201000000000055
:10129A000132000000000001CE003F006A00020097
:1012AA0000000000000132000000000001120200EC
:1012BA000096FF0141000D000100013E000C0003F1
:1012CA00000134000A000300012F00080005000194
:1012DA0040000A000800013D0007000A00011B0047
:1012EA0002000500011B0002000500013C0001008C
:1012FA000C00013700FFFF0B00012F00FDFF090062
:10130A00013600FAFF0900013500F9FF0800013D26
:10131A0000F6FF0700013C00F5FF0500014400F359
:10132A00FF0400014600F2FF010001000000000076
:10133A00000201000000000001320000000000016C
:10134A00900164FF4AFF0200000000000001320021
:10135A000000000001A200FBFFE0FF012D00F7FFE3
:10136A00FFFF012600F9FFFDFF011D00FBFFFDFF46
:10137A00012000FBFFFCFF012700FBFFFAFF012B06
:10138A0000FDFFF8FF012E00FEFFF7FF013200FF0C
:10139A00FFF6FF0132000100F6FF0133000200F6FA
:1013AA00FF012B000300F8FF0127000500FAFF01E7
:1013BA002A000600FAFF012B000700FBFF012B00A1
:1013CA000800FDFF012F000900FDFF016000130066
:1013DA00FEFF019B001F000000012B00F9FF050022
:1013EA00012A00FAFF0600012700FBFF0600012878
:1013FA0000FCFF0700012400FCFF0600012400FE98
:10140A00FF0700012800FFFF0800012800FFFF086E
:10141A0000012D0001000900012D00010009000151
:10142A002F0003000900012D000400080001280014
:10143A0004000700012E0006000700012E00070025
:10144A000600013200080006000133000900050009
:10145A00013100090004000136000A0004000134C9
:10146A00000A000300016B00150004000173001755
:10147A00000100015000100000000151001000FEA0
:10148A00FF0148000E00FDFF014A000E00FBFF01AC
:10149A004A000E00FBFF0141000B00F9FF0140006A
:1014AA000A00F8FF0139000800F8FF013D000700B3
:1014BA00F6FF013C000500F5FF0138000200F5FFC8
:1014CA000141000100F3FF0128000000F8FF012993
:1014DA0000FEFFF8FF012400FEFFF9FF012800FCCF
:1014EA00FFF9FF012800FCFFF9FF012E00FAFFF9BE
:1014FA00FF012E00F9FFFAFF012B00F9FFFBFF01A4
:10150A0087001B0000000196000000E2FF01DE03D5
:10151A003AFF0000017D00E7FF0000016900EBFFD0
:10152A000200015600EFFF0300014400F3FF04002C
:10153A00013800F6FF0500013D00F6FF07000135FE
:10154A0000F8FF0700013D00F9FF0A00013A00FA1E
:10155A00FF0A00013F00FCFF0C00013D00FEFF0CEA
:10156A0000014600FFFF0E000150000100100001BB
:10157A004E0004000F0001480006000D000144005F
:10158A0008000B00012000040005000127000600E6
:10159A0005000122000600030001260007000300DF
:1015AA000124000700020001290008000200015579
:1015BA00001100010001000000000000020100000B
:1015CA000000000132000000000001EA008A00E584
:1015DA00FF020000000000000132000000000001CC
:1015EA006900EBFFFFFF015B00EEFFFDFF014F000B
:1015FA00F1FFFBFF012200FAFFFDFF012200FAFFC3
:10160A00FDFF013C00F7FFF8FF013900F9FFF7FF82
:10161A00013400FDFFF6FF013300FEFFF6FF01383B
:10162A00000200F5FF0134000300F6FF013900074C
:10163A0000F7FF013C000900F8FF011D000500FD4D
:10164A00FF0126000700FDFF014A000E00FBFF0113
:10165A005B001200FDFF0164001400FFFF0164003B
:10166A001400010001560011000300014F000F0091
:10167A0005000145000C000700013C0009000800B4
:10168A00013900070009000131000400090001378F
:10169A000001000B00013200FFFF0A00013600FCC6
:1016AA00FF0A00013900F9FF0900013C00F7FF08B1
:1016BA0000014300F4FF0600014A00F2FF050001A1
:1016CA005600EFFF0300015F00EDFF01000100007B
:1016DA0000000000020100000000000132000000CA
:1016EA00000001770176FF4EFF02000000000000B3
:1016FA000132000000000001A200FBFFE0FF012D03
:10170A0000F7FFFFFF012600F9FFFDFF011D00FBA7
:10171A00FFFDFF012000FBFFFCFF012700FBFFFA92
:10172A00FF012B00FDFFF8FF012E00FEFFF7FF016E
:10173A003200FFFFF6FF0132000100F6FF0133001D
:10174A000200F6FF012B000300F8FF012700050045
:10175A00FAFF012A000600FAFF012B000700FBFF2F
:10176A00012B000800FDFF012F000900FDFF0160A9
:10177A00001300FEFF019B001F000000012B00F96F
:10178A00FF0500012A00FAFF0600012700FBFF06F9
:10179A0000012400FCFF0600012800FCFF070001ED
:1017AA002400FEFF0700012800FFFF0800012800AF
:1017BA00FFFF0800012D0001000900012D000100B2
:1017CA000900012F00030009000128000400070096
:1017DA00012D0004000800012E0006000700012E5A
:1017EA000007000600013200080006000133000964
:1017FA00000500013100090004000136000A000456
:10180A00000134000A000300016B00150004000106
:10181A007300170001000150001000FFFF01500083
:10182A001000FFFF0148000E00FDFF014A000E00F4
:10183A00FBFF014A000E00FBFF0141000B00F9FF0C
:10184A000140000A00F8FF0139000800F8FF013DD5
:10185A00000700F6FF013C000500F5FF0138000211
:10186A0000F5FF0141000100F3FF0128000000F824
:10187A00FF012900FEFFF8FF012400FEFFF9FF0126
:10188A002800FCFFF9FF012800FCFFF9FF012E00E8
:10189A00FAFFF9FF012E00F9FFFAFF012B00F9FF09
:1018AA00FBFF0187001B0000000196000000E2FF19
:1018BA0001DE033AFF0000017D00E7FF0000016935
:1018CA0000EBFF0200015600EFFF0300014400F3A2
:1018DA00FF0400013800F6FF0500013D00F6FF078E
:1018EA0000013500F8FF0700013D00F9FF0A000179
:1018FA003A00FAFF0A00013F00FCFF0C00013D001C
:10190A00FEFF0C00014600FFFF0E0001500001001F
:10191A001000014E0004000F0001480006000D00EF
:10192A0001440008000B0001200004000500012406
:10193A000006000400012400060004000126000736
:10194A000003000124000700020001290008000228
:10195A000001550011000100010000000000000212
:10196A000100000000000132000000000001EA004E
:10197A008A00E5FF020000000000000132000000BA
:10198A000000016900EBFFFFFF015B00EEFFFDFFB6
:10199A00014F00F1FFFBFF012200FAFFFDFF0122C8
:1019AA0000FAFFFDFF013C00F7FFF8FF013900F9DB
:1019BA00FFF7FF013400FDFFF6FF013800FEFFF5D7
:1019CA00FF0133000200F6FF0134000300F6FF01B5
:1019DA0039000700F7FF013C000900F8FF011D006C
:1019EA000500FDFF0128000700FCFF0149000E0069
:1019FA00FCFF015B001200FDFF0164001400FFFF01
:101A0A000164001400010001560011000300014F97
:101A1A00000F0005000145000C000700013C000909
:101A2A00000800013900070009000131000400091B
:101A3A000001370001000B00013200FFFF0A00011C
:101A4A003600FCFF0A00013900F9FF0900013C00D9
:101A5A00F7FF0800014300F4FF0600014A00F2FF05
:101A6A000500015600EFFF0300015F00EDFF0100D2
:101A7A000100000000000002010000000000013225
:101A8A000000000000018D0189FF32FF0200000002
:101A9A000000000132000000000001960000001E54
:101AAA0000012C063C01000001A5000000DFFF0137
:101ABA00300290FF0000012B000700FBFF012A0003
:101ACA000600FAFF0127000500FAFF0127000500BA
:101ADA00FAFF0126000300F9FF0124000200F9FFC2
:101AEA000124000200F9FF0128000000F8FF012D7F
:101AFA00000000F7FF012900FEFFF8FF012900FEA0
:101B0A00FFF8FF012D00FCFFF8FF012F00FBFFF893
:101B1A00FF012B00FBFFF9FF012E00F9FFFAFF017D
:101B2A002B00F9FFFBFF012F00F8FFFBFF0131003B
:101B3A00F7FFFCFF013600F6FFFCFF013400F6FF59
:101B4A00FDFF013900F5FFFDFF013C00F4FFFFFF37
:101B5A00017800E8FFFEFF014600F2FF000001479E
:101B6A0000F2FF0200013D00F4FF0200013D00F413
:101B7A00FF0200013B00F5FF0400013600F6FF04F6
:101B8A0000013300F7FF0500013300F7FF050001EC
:101B9A003100F9FF0700012E00F9FF0600012B00B2
:101BAA00FBFF0700012B00FBFF0700012D00FCFFD4
:101BBA000800012400FEFF0700012900FEFF0800BB
:101BCA00012D000000090001280000000800012979
:101BDA000002000800012600030007000126000396
:101BEA0000070001270005000600012A000600067A
:101BFA0000012E0007000600012F00080005000161
:101C0A009100E3FF00000201000000000001320021
:101C1A000000000001C10074000000020000000082
:101C2A00000001320000000000015F00EDFFFFFF2D
:101C3A00015000F0FFFFFF014800F2FFFDFF0136EF
:101C4A0000F6FFFCFF012800F9FFFCFF012700FA5C
:101C5A00FFFBFF012000FBFFFCFF012300FBFFFB52
:101C6A00FF012200FDFFFAFF011B00FEFFFBFF013F
:101C7A002000FEFFFAFF0123000000F9FF013200F5
:101C8A000100F6FF0131000400F7FF0139000700E7
:101C9A00F7FF0140000A00F8FF0145000C00F9FFB8
:101CAA000154001000FBFF0156001100FDFF0169FD
:101CBA00001500FFFF01690015000100015B001219
:101CCA00000300014F000F00050001220006000377
:101CDA000001220006000300013C0009000800017F
:101CEA0035000700080001360004000A000132002E
:101CFA0001000A00013200FFFF0A00013600FCFF62
:101D0A000A00013900F9FF0900014000F6FF080046
:101D1A00014300F4FF0600014F00F1FF05000156E0
:101D2A0000EFFF0300016400ECFF01000100000066
:101D3A000000000201000000000001320000000063
:101D4A0000011001FFFF5DFF02000000000000011A
:101D5A00320000000000014B000F00FFFF014600A7
:101D6A000E00FFFF0148000E00FDFF013E000C00BF
:101D7A00FDFF013B000B00FCFF013C000B00FBFFD9
:101D8A000136000900FAFF0135000800F9FF012AAF
:101D9A00000600FAFF012B000500F9FF01280004E4
:101DAA0000F9FF0128000400F9FF012B000300F8E5
:101DBA00FF0129000200F8FF0128000100F8FF01D5
:101DCA002D000000F7FF0132000000F6FF012E008F
:101DDA00FEFFF7FF012E00FEFFF7FF012B00FDFFBC
:101DEA00F8FF012F00FBFFF8FF012B00FBFFF9FFB3
:101DFA00012E00FAFFF9FF013200F8FFFAFF013263
:101E0A0000F8FFFAFF012F00F8FFFBFF013800F688
:101E1A00FFFBFF013400F6FFFDFF013900F5FFFD6E
:101E2A00FF013D00F4FFFEFF014100F3FFFFFF0148
:101E3A004100F3FF0000016900EBFF0000016000B0
:101E4A00EDFF0200015200F0FF0400014A00F2FF18
:101E5A000500014300F4FF0600013D00F6FF0700FC
:101E6A00014000F7FF0900014000F8FF0A00013FA6
:101E7A0000FAFF0B00013C00FBFF0B00013D00FED6
:101E8A00FF0C00013C00FFFF0C0001320000000AB9
:101E9A0000012E0002000900012E000200090001C3
:101EAA002D0004000800012D0004000800012F0085
:101EBA0005000800012E0007000600013100070096
:101ECA00070001320008000600013300090005007E
:101EDA000136000A0004000134000A000300013E32
:101EEA00000C000300013D000C0002000146000E38
:101EFA000001000146000E00010001000000000080
:101F0A000002010000000000013200000000000190
:101F1A0039000000DEFF020000000000000132006C
:101F2A0000000000016900EBFFFFFF015B00EEFF0C
:101F3A00FDFF014F00F1FFFBFF012200FAFFFDFF49
:101F4A00012400FAFFFCFF014000F6FFF8FF013D03
:101F5A0000F9FFF6FF013600FCFFF6FF013C00FF27
:101F6A00FFF4FF013C000100F4FF0136000400F613
:101F7A00FF013D000700F6FF0140000A00F8FF01DB
:101F8A0024000600FCFF0122000600FDFF015400A8
:101F9A001000FBFF015B001200FDFF016900150044
:101FAA00FFFF016400140001000156001100030044
:101FBA00014F000F00050001260007000300012061
:101FCA0000050004000143000A0009000139000766
:101FDA00000900013B0004000B0001370001000B5F
:101FEA0000013C00FFFF0C00013600FCFF0A000163
:101FFA003D00F9FF0A00014000F6FF080001200039
:10200A00FBFF0400012600F9FF0300014F00F1FF66
:10201A000500015B00EEFF0300016400ECFF010014
:10202A00010000000000000201000000000001326F
:10203A00000000000001BC01B0FF02FF0200000026
:10204A000000000132000000000001AC00DEFFFBCE
:10205A00FF014300FDFF0D00013C00FFFF0C0001E2
:10206A0028000100080001230001000700012400E4
:10207A0002000700011D000300050001190003000A
:10208A0004000120000500040001190004000300F7
:10209A00011D0005000300012300070001000133B0
:1020AA00000A0002000191001D000100019402844F
:1020BA00000000017300000017000196001E0000D6
:1020CA00000173000000E9FF011D01390000000151
:1020DA00C9001700DFFF019001B0FF000001A00056
:1020EA000000E0FF019600E2FF000001A0000000EE
:1020FA002000019E027AFF0000014600F2FF000064
:10210A00012300F9FFFFFF011D00FBFFFDFF011581
:10211A0000FDFFFDFF011B00FEFFFBFF011E00FF8C
:10212A00FFFAFF0147000200F2FF01000000000071
:10213A00000201000000000001320000000000015E
:10214A0058075AFF5C040200000000000001320038
:10215A000000000001C701A8FFE9FF0141000000DB
:10216A00F3FF015C014400F1FF014C00F1FFFEFFA7
:10217A00011001CBFFF4FF0141000000F3FF01C78A
:10218A00015800E9FF013C0000000C00010701CDE5
:10219A00FF0D00015700EFFF040001570011000472
:1021AA000001050133000B00013C0000000C000196
:1021BA000601CDFF0C00016100EDFF040001610082
:1021CA001300040001060133000C00014100000065
:1021DA000D000100000000000002010000000000E4
:1021EA000132000000000001FF00A8FF83FF020087
:1021FA0000000000000132000000000001C6015882
:10220A000016000141000000F3FF010501CDFFF5B2
:10221A00FF016200EDFFFBFF0161001300FCFF01FB
:10222A0005013300F5FF0141000000F3FF0105013C
:10223A00CDFFF5FF015700EFFFFCFF01570011002A
:10224A00FCFF0107013300F3FF013C000000F4FF2B
:10225A0001C701A8FF170001410000000D0001108D
:10226A000135000C00014C000F000300015C01BCA9
:10227A00FF0F0001410000000D00020100000000F4
:10228A00000132000000000001AC00000099FF02CA
:10229A000000000000000132000000000001C60139
:1022AA0058001600013C000000F4FF010601CDFFB2
:1022BA00F4FF016200EDFFFBFF0160001300FDFF68
:1022CA000106013300F4FF0141000000F3FF01059C
:1022DA0001CDFFF5FF015700EFFFFCFF0157001189
:1022EA0000FCFF0107013300F3FF013C000000F48A
:1022FA00FF01C701A8FF170001410000000D0001FE
:10230A00100135000C00014C000F000300015C01B4
:10231A00BCFF0F0001410000000D00020100000097
:10232A00000001320000000000019B000000A3FF32
:10233A000200000000000001320000000000015508
:10234A0000110000000146000000F2FF015500EFF5
:10235A00FF000001460000000E000201000000001C
:10236A0000013200000000000197001C00AAFF02D1
:10237A0000000000000001320000000000014100DE
:10238A00FFFFF3FF012400F9FF0200012000FAFF1A
:10239A000200011900FCFF0300012000FBFF0400FA
:1023AA00011D00FDFF0500011B00FEFF0500011BCA
:1023BA0000FEFF0500011E000000060001280001C2
:1023CA00000800012400020007000124000400069E
:1023DA000001230005000500012400060004000195
:1023EA002B0008000300012E000900020001320040
:1023FA000A0000000137000B000000012E0009004E
:10240A00FEFF012B000800FDFF0128000700FCFF6A
:10241A000123000500FBFF0124000400FAFF012646
:10242A00000300F9FF0123000000F9FF0123000067
:10243A0000F9FF012200FDFFFAFF012200FDFFFA69
:10244A00FF012700FAFFFBFF012400FAFFFCFF014E
:10245A002B00F8FFFDFF012E00F7FFFEFF013700FA
:10246A00F5FFFFFF011500FCFF0100011301000049
:10247A003700012300F9FFFFFF012000FAFFFEFFEA
:10248A00011B00FBFFFEFF011600FCFFFEFF011906
:10249A0000FDFFFCFF011500FDFFFDFF011500FF18
:1024AA00FFFCFF011900FFFFFBFF011E000100FAFC
:1024BA00FF0120000400FBFF0123000500FBFF01D0
:1024CA002B000800FDFF01000000000000020100CF
:1024DA000000000001320000000000015000190055
:1024EA002900020000000000000132000000000084
:1024FA0001CD000000D7FF012D00090001000126CF
:10250A000007000300011C00040004000115000379
:10251A000003000116000200040001190000000572
:10252A000001140000000400011600FEFF0400016F
:10253A001200FEFF0300011500FDFF030001190050
:10254A00FCFF0300011600FCFF0200011900FBFF5B
:10255A000100011900FBFF0100010000000000005A
:10256A000201000000000001320000000000019793
:10257A0000C4FFBCFF02000000000000013200009E
:10258A00000000013E00FDFFF4FF011900FBFFFF00
:10259A00FF011900FCFFFDFF011D00FDFFFBFF010C
:1025AA002900FEFFF8FF0124000200F9FF012200C2
:1025BA000300FAFF0120000500FCFF0120000600CD
:1025CA00FEFF0123000700FFFF0141000D0000008C
:1025DA00012400FAFF0400011D00FDFF0500011B94
:1025EA0000FEFF0500011E00FFFF06000123000197
:1025FA000007000124000200070001200004000572
:10260A00000127000600050001260007000300015B
:10261A002B000800030001280008000100012D001A
:10262A0009000100013C000C00FFFF0139000B000A
:10263A00FDFF0138000A00FBFF012E000700FAFF28
:10264A000116000200FCFF0116000200FCFF011542
:10265A00000100FCFF0119000000FBFF011E000041
:10266A0000FAFF012200FDFFFAFF012000FCFFFB38
:10267A00FF012300FBFFFBFF0132000A00000001FB
:10268A0037000000F5FF017C01B4FF0000015A0089
:10269A00EEFF0100011E00FAFF0100011900FBFF15
:1026AA000100012F00F8FF0500012E00FAFF0700C4
:1026BA00012D00FCFF0800013200FFFF0A00012380
:1026CA00000100070001190001000500011B0002BA
:1026DA00000500011D0003000500011900040003A4
:1026EA0000011D0005000300011E00060001000193
:1026FA0023000700000001000000000000020100A2
:10270A000000000001320000000000015A003500FC
:10271A00F6FF020000000000000132000000000085
:10272A00012800F8FF0000012300F9FFFFFF012044
:10273A0000FAFFFEFF011D00FBFFFDFF011500FD72
:10274A00FFFDFF011500FDFFFDFF011500FFFFFC66
:10275A00FF011500FFFFFCFF0115000100FCFF014E
:10276A0015000100FCFF0115000300FDFF0119001F
:10277A000300FCFF011B000500FEFF01200006000C
:10278A00FEFF011E000600FFFF01280008000000EE
:10279A0001280008000000011E00060001000120B7
:1027AA000006000200011D000500030001150003D8
:1027BA0000030001150003000300011500010004D5
:1027CA000001150001000400011500FFFF040001CB
:1027DA001500FFFF0400011500FDFF0300011500AD
:1027EA00FDFF0300011D00FBFF0300011B00FBFFAF
:1027FA000200012300F9FF0100012300F9FF000094
:10280A000100000000000002010000000000013287
:10281A000000000000019100CBFFBBFF0200000096
:10282A0000000001320000000000013E00FDFFF43C
:10283A00FF011900FBFFFFFF011900FCFFFDFF016B
:10284A002200FDFFFAFF012400FEFFF9FF01290023
:10285A000200F8FF011D000300FBFF012000050034
:10286A00FCFF0122000600FDFF0123000700000013
:10287A000141000D00FFFF012700FAFF0500011DBD
:10288A0000FDFF0500011B00FEFF0500011E00FF01
:10289A00FF060001230001000700012000020006D4
:1028AA0000012400040006000124000600040001BF
:1028BA00280007000400012B00080003000128007B
:1028CA0008000100012D0009000100013C000C0074
:1028DA00FFFF0139000B00FDFF0138000A00FBFF72
:1028EA00012E000700FAFF0116000200FCFF011684
:1028FA00000200FCFF0115000100FCFF01190000A5
:10290A0000FBFF011E000000FAFF012200FDFFFA92
:10291A00FF012000FCFFFBFF012300FBFFFBFF017F
:10292A0032000A0000000137000000F5FF017C01B7
:10293A00B4FF0000015A00EEFF0100011E00FAFF79
:10294A000100011900FBFF0100012F00F8FF05003B
:10295A00012A00FAFF0600013100FCFF09000132DA
:10296A0000FFFF0A00011E0001000600011E00010F
:10297A00000600011B000200050001190003000403
:10298A0000011C0004000400011B000500020001F4
:10299A0020000600020001230007000000010000D9
:1029AA0000000000020100000000000132000000E7
:1029BA000000015A003500F6FF0200000000000086
:1029CA0001320000000000012800F8FF0000012485
:1029DA0000F9FFFEFF011E00FAFFFFFF011D00FBC9
:1029EA00FFFDFF011500FDFFFDFF011500FDFFFDC5
:1029FA00FF011500FFFFFCFF011500FFFFFCFF01AF
:102A0A0015000100FCFF0115000100FCFF0119007F
:102A1A000300FCFF0115000300FDFF011B00050078
:102A2A00FEFF0120000600FEFF011E000600FFFF58
:102A3A000128000800FFFF01280008000100011E0C
:102A4A00000600010001200006000200011B00052B
:102A5A00000200011900030004000115000300032D
:102A6A000001150001000400011500010004000125
:102A7A001500FFFF0400011500FFFF040001150007
:102A8A00FDFF0300011500FDFF0300011D00FBFF10
:102A9A000300011900FBFF0100012400F9FF0200F5
:102AAA00012300F9FF0000010000000000000201FC
:102ABA00000000000001320000000000016F00F772
:102ACA00FFBEFF020000000000000132000000000B
:102ADA0000014B000F00000001C3000000D9FF01F4
:102AEA004B00F1FF000001C30000002700020100B3
:102AFA000000000001320000000000017B00DBFF43
:102B0A00C0FF0200000000000001320000000000C7
:102B1A0001370000000B000162027A000000013C4C
:102B2A00000000F4FF01DC00D4FF000001240006CD
:102B3A0000FCFF011D000300FBFF011D000300FB59
:102B4A00FF011E000000FAFF0123000000F9FF0147
:102B5A002200FDFFFAFF012400FCFFFAFF0120001A
:102B6A00FBFFFCFF012800F9FFFCFF012900F8FF29
:102B7A00FEFF012900F8FFFEFF012D00F7FFFFFF0E
:102B8A00013700F5FF0100013300F6FF0200012BB7
:102B9A0000F8FF0300012800F9FF0400012300FBED
:102BAA00FF0500012000FCFF0500012000FEFF06D2
:102BBA0000011E00FFFF0600011E000100060001C1
:102BCA002000020006000120000400050001240084
:102BDA0006000400013700F5FF00000201000000B2
:102BEA00000001320000000000014B002D0000002F
:102BFA00020000000000000132000000000001464F
:102C0A0000F2FFFFFF012F00F7FFFDFF011D00FB90
:102C1A00FFFDFF011C00FCFFFCFF011600FEFFFC8C
:102C2A00FF011900FFFFFBFF0115000100FCFF0176
:102C3A0010000100FDFF0119000300FCFF0119004B
:102C4A000400FDFF011B000500FEFF011B0005003B
:102C5A00FEFF0123000700FFFF0128000800FFFF15
:102C6A000128000800010001230007000100011EDD
:102C7A000006000100011D00050003000115000304
:102C8A0000030001150003000300011600020004FE
:102C9A0000011400000004000114000000040001F7
:102CAA001200FEFF0300011900FDFF0400011500D8
:102CBA00FDFF0300011D00FBFF0300011E00FAFFD8
:102CCA000100012400F9FF0200012300F9FF0000BE
:102CDA0001000000000000020100000000000132B3
:102CEA000000000000016900FFFFC1FF02000000B0
:102CFA0000000001320000000000013C000C00FF4F
:102D0A00FF0133000A00FEFF012D000800FCFF014D
:102D1A002B000700FBFF0120000400FBFF011D0040
:102D2A000300FBFF0120000200FAFF01230000005C
:102D3A00F9FF0123000000F9FF012600FDFFF9FF5A
:102D4A00011D00FDFFFBFF012A00FAFFFAFF012423
:102D5A0000FAFFFCFF012B00F8FFFDFF012E00F730
:102D6A00FFFEFF013200F6FF0000014B00F1FF01F8
:102D7A0000011E00FAFF0100011B00FBFF02000117
:102D8A003300F7FF0500013100F9FF0700013100A8
:102D9A00FCFF0900012D00FFFF09000128000100C6
:102DAA0008000120000200060001240004000600B9
:102DBA000123000500050001240006000400012B80
:102DCA0000080003000133000A0002000132000A71
:102DDA0000010001000000000000020100000000E4
:102DEA0000013200000000000116000000F3FF029B
:102DFA00000000000000013200000000000128006D
:102E0A00F8FF0000012400F9FFFEFF011E00FAFF8F
:102E1A00FFFF011900FCFFFDFF011900FCFFFDFF88
:102E2A00011900FDFFFCFF011500FFFFFCFF01195E
:102E3A0000FFFFFBFF0115000100FCFF0115000167
:102E4A0000FCFF0119000300FCFF0119000400FD4A
:102E5A00FF011D000500FDFF011B000500FEFF012B
:102E6A0028000800FFFF01280008000000012300D5
:102E7A0007000000012300070001000120000600EE
:102E8A000200011D000500030001150003000300F4
:102E9A0001190003000400011500010004000115D6
:102EAA000001000400011900FFFF0500011500FFE1
:102EBA00FF0400011900FDFF0400011500FDFF03D6
:102ECA0000011D00FBFF0300011E00FAFF010001C3
:102EDA002400F9FF0200012800F8FF0000010000A9
:102EEA0000000000020100000000000132000000A2
:102EFA00000001AB00E1FF9EFF020000000000009D
:102F0A0001320000000000014200F3FFFEFF012D24
:102F1A0000FFFF0900011E0000000600011B00025D
:102F2A000005000115000300030001160004000259
:102F3A0000012300070001000137000B0001000116
:102F4A00FF0033000000012D0000000900013700D6
:102F5A000B000000012D000000F7FF016E001600B3
:102F6A000000014F000900F3FF019B00E1FF000090
:102F7A00013C000000F4FF013700F5FF0000013CAE
:102F8A000000000C00010401CCFF0000012800F839
:102F9A00FF0000011500FDFFFDFF011500FFFFFC0A
:102FAA00FF0119000000FBFF010000000000000201
:102FBA0001000000000001320000000000012200B0
:102FCA00F3FFF0FF020000000000000132000000E1
:102FDA000000015500110000000146000000F2FF48
:102FEA00015500EFFF000001460000000E0002013B
:102FFA0000000000000132000000000001960020DD
:10300A0000ACFF02000000000000013200000000D6
:10301A0000013D00FEFFF4FF012300F9FF0100015A
:10302A002000FAFF0200012200FAFF0300011C003F
:10303A00FCFF0400011C00FCFF0400011D00FDFF51
:10304A000500012000FEFF0600011900000005002E
:10305A0001280001000800012000020006000124E6
:10306A0000040006000123000500050001240006F3
:10307A00000400012B0008000300012D00090001D3
:10308A00000137000B0001000141000D00FFFF01A4
:10309A003E000C00FDFF011B000500FEFF011900A8
:1030AA000400FDFF0119000400FDFF0119000300DF
:1030BA00FCFF012D000400F8FF0132000100F6FFB9
:1030CA000119000000FBFF011E00FFFFFAFF0119B2
:1030DA0000FDFFFCFF011900FDFFFCFF011C00FCC5
:1030EA00FFFCFF011D00FBFFFDFF011B00FBFFFEB4
:1030FA00FF012300F9FFFFFF013D00FEFF0C000165
:10310A0029000800020001240006000400011D0035
:10311A0003000500011E0001000600011400000062
:10312A000400011600FEFF0400011900FDFF04005F
:10313A00011500FDFF0300011D00FBFF0300012034
:10314A0000FAFF0200012300F9FF0100012800F83C
:10315A00FF0000012800F8FF0000012300F9FFFF2B
:10316A00FF012000FAFFFEFF011D00FBFFFDFF012A
:10317A001500FDFFFDFF011500FDFFFDFF01150014
:10318A00FFFFFCFF011500FFFFFCFF012400020006
:10319A00F9FF0124000400FAFF0112000300FEFFF8
:1031AA000116000400FEFF012E000900FEFF0100C7
:1031BA0000000000000201000000000001320000CF
:1031CA000000000124000C00EEFF020000000000D5
:1031DA000001320000000000013C000C00FFFF016A
:1031EA0033000A00FEFF012D000800FCFF012B003E
:1031FA000700FBFF0120000400FBFF011D00030084
:10320A00FBFF0120000200FAFF0123000000F9FF82
:10321A000123000000F9FF012600FDFFF9FF01224A
:10322A0000FDFFFAFF012700FAFFFBFF012400FA65
:10323A00FFFCFF012B00F8FFFDFF012E00F7FFFE48
:10324A00FF013200F6FF0000014B00F1FF0100010F
:10325A001E00FAFF0100011B00FBFF020001330000
:10326A00F7FF0500013100F9FF0700013100FCFFFB
:10327A000900012D00FFFF090001230001000700DA
:10328A0001240002000700012400040006000123B3
:10329A00000500050001240006000400012B0008B7
:1032AA000003000133000A0002000132000A000193
:1032BA0000010000000000000201000000000001FF
:1032CA003200000000000116000000F3FF020000B7
:1032DA000000000001320000000000012800F8FF91
:1032EA00FFFF012300F9FFFFFF012000FAFFFEFFA5
:1032FA00011600FCFFFEFF011C00FCFFFCFF01158C
:10330A0000FDFFFDFF011500FFFFFCFF011900FF93
:10331A00FFFBFF0115000100FCFF0115000100FC85
:10332A00FF0119000300FCFF0119000400FDFF0161
:10333A001D000500FDFF011B000500FEFF0128001E
:10334A000800FFFF0128000800FFFF012300070013
:10335A00010001230007000100012000060002000D
:10336A00011D0005000300011500030003000119F7
:10337A00000300040001150001000400011500010A
:10338A00000400011900FFFF0500011500FFFF04FA
:10339A0000011500FDFF0300011900FDFF040001F3
:1033AA001B00FBFF0200012000FAFF0200012300BC
:1033BA00F9FF0100012800F8FF01000100000000E8
:1033CA0000000201000000000001320000000000BD
:1033DA00018B00D4FFB9FF02000000000000013297
:1033EA00000000000001B801580000000137000089
:1033FA0000F5FF013C00F4FF00000124000600FC78
:10340A00FF0124000400FAFF0122000300FAFF0171
:10341A0023000100F9FF012300FFFFF9FF01220049
:10342A00FDFFFAFF012300FBFFFBFF012000FAFF6B
:10343A00FEFF012B000700FBFF0127000500FAFF32
:10344A000120000200FAFF011E000100FAFF011923
:10345A00000000FBFF011900FFFFFBFF011900FD3F
:10346A00FFFCFF011500FDFFFDFF011900FCFFFD38
:10347A00FF011B00FBFFFEFF011E00FAFFFFFF0119
:10348A002300F9FF0000013101C3FF0000013C00E5
:10349A0000000C0001180138000000012300070099
:1034AA000100011E000600010001100003000100D6
:1034BA0001150003000300011600020004000114B4
:1034CA000000000400010F0000000300011500FFC6
:1034DA00FF0400011200FEFF0300011200FDFF02BB
:1034EA0000011500FDFF0300011900FBFF010001A7
:1034FA003D00F4FF020001FF00CDFF0000013C0087
:10350A0000000C00011D0139000000012D00090016
:10351A00010001200006000200011200030002005F
:10352A00010B0001000200011E0001000600011942
:10353A000000000500011D00FDFF0500011C00FC44
:10354A00FF0400012000FAFF0200012900F8FF022F
:10355A0000013200F6FF000001E600D2FF00000180
:10356A00410000000D0002010000000000013200CD
:10357A000000000001ED05CB0089FC0200000000FC
:10358A0000000132000000000001A400F5FFE1FF85
:10359A0001A100F7FFE1FF012201F1FFC8FF0105C8
:1035AA0001F5FFCDFF01DA00F9FFD5FF01B100FBFC
:1035BA00FFDDFF018700FEFFE5FF016E00FEFFEA67
:1035CA00FF020100000000000132000000000001BB
:1035DA00F8013E002801020000000000000132004C
:1035EA000000000001800280FF00000201000000CC
:1035FA00000001320000000000010C02EC0030FF64
:10360A00020000000000000132000000000001ABCF
:10361A0000F7FF2100019500F6FF1C00019600F556
:10362A00FF1C00019D00F4FF1D0001C000F0FF23F4
:10363A000001CE00ECFF2400016300F6FF11000137
:10364A006100F5FF1000016400F4FF100001600042
:10365A00F4FF0F00012A00FAFF0600012700FAFF13
:10366A000500012400FAFF0400012000FAFF02000D
:10367A00012000FAFF0200011E00FAFF0000013CCF
:10368A0000F4FF0000013D00F4FFFEFF014200F3D9
:10369A00FFFEFF014200F3FFFEFF014600F2FF00BA
:1036AA0000013700F5FF0000012D00F7FFFFFF01C1
:1036BA002B00F8FFFDFF012000FBFFFCFF010E00BD
:1036CA00FEFFFEFF010F000000FDFF011000FFFFDB
:1036DA00FDFF0115000100FCFF012D000400F8FFA9
:1036EA000140000800F6FF0120000400FBFF01244E
:1036FA00000200F9FF012E000200F7FF012D000071
:10370A0000F7FF012D00FFFFF7FF012E00FEFFF774
:10371A00FF012800FCFFF9FF012700FBFFFAFF0267
:10372A0001000000000001320000000000019E02BA
:10373A00FF00C9FE02000000000000013200000084
:10374A000000011E0006000000011500040001002F
:10375A000112000300020001160002000400011B0E
:10376A00000200050001190001000500014600FFE2
:10377A00FF0E00014C00FEFF0F00014C00FDFF0F81
:10378A0000018E00FBFF1C00018F00FAFF1C0002E3
:10379A0001000000000001320000000000012902BF
:1037AA00E9FEB4000200000000000001320000003F
:1037BA000000015D00EEFFFBFF014700F2FFFEFF84
:1037CA00013700F5FF0000012F00F7FF0300012772
:1037DA0000FAFF0500012700FBFF0600012600FD95
:1037EA00FF0700012E00FEFF0900015600FDFF1130
:1037FA0000012D00FFFF0900012900FEFF0800015A
:10380A002600FDFF0700012000FCFF05000124003F
:10381A00FAFF0400012800F8FF0100018A01EFFF06
:10382A00B3FF011E000000FAFF0119000100FBFFAF
:10383A000136000400F6FF013A000600F6FF0136E1
:10384A00000600F7FF0160000C00F1FF01280004E8
:10385A0000F9FF0120000200FAFF010B00FFFFFE42
:10386A00FF011000FFFFFDFF012E00F9FFFAFF0123
:10387A008A00EBFFEEFF014B00F4FFF7FF014A005D
:10388A00F6FFF5FF014300F7FFF6FF011D00FDFFFC
:10389A00FBFF011B00FEFFFBFF014B01F3FFBFFF14
:1038AA00010401F6FFCDFF0119000500000001190E
:1038BA0000050001000116000400020001160004C0
:1038CA0000020001350007000800013A0006000A5C
:1038DA00000194000C001B00015E000800110001A9
:1038EA00600009001100011D0003000500011C0011
:1038FA00040004000144000B000800014A000D0006
:10390A000700014A000E0005000147000E000200F0
:10391A00012300070000000123000700FFFF012028
:10392A00000600FEFF011D000500FDFF0120000545
:10393A0000FCFF0124000400FAFF0131000400F733
:10394A00FF013E000300F4FF0141000100F3FF0103
:10395A0046000000F2FF02010000000000013200F0
:10396A0000000000010A000600000002000000003A
:10397A00000001320000000000016600140004008B
:10398A0001510010000200013C000C00000001334C
:10399A00000A00FEFF012D000800FCFF01320008AA
:1039AA0000FAFF0135000800F9FF0143000900F69B
:1039BA00FF014E000A00F4FF014E000A00F4FF0165
:1039CA009E001200E6FF0138012100CBFF015500DD
:1039DA000800F1FF015C000900F0FF01BE000F00C2
:1039EA00DDFF01BF000D00DCFF01B1000A00DEFFB0
:1039FA0001F7000C00D0FF01F5000A00D0FF015AC0
:103A0A00000100EEFF011E00FFFFFAFF011500FF93
:103A1A00FFFCFF011200FEFFFDFF011200FDFFFE89
:103A2A00FF011000FDFFFFFF011000FDFF01000173
:103A3A002E00F7FF0200012F00F7FF0300013900F3
:103A4A00F5FF0300013200F6FF0100013200F6FF24
:103A5A000000012E00F7FF0200013100F7FF040009
:103A6A00013600F7FF0600013900F7FF0700013CA5
:103A7A0000F8FF0900014300F7FF0A00014400F8BB
:103A8A00FF0B00018900F1FF1700019200F1FF19F5
:103A9A0000018B00F2FF1800018000F3FF160002FC
:103AAA0001000000000001320000000000019B013B
:103ABA00C4FFEF0002000000000000013200000015
:103ACA000000015F00EDFF0000015100F0FFFEFF62
:103ADA00013D00F4FFFEFF013100F7FFFCFF011575
:103AEA0000FDFFFDFF011500FDFFFDFF011600FEB1
:103AFA00FFFCFF011500FFFFFCFF013C00FFFFF484
:103B0A00FF014C000200F1FF0156000300EFFF0124
:103B1A0061000400EDFF0162000500EDFF01650090
:103B2A000700EDFF0165000900EEFF013200060003
:103B3A00F8FF0132000600F8FF0135000700F8FF20
:103B4A000131000700F9FF0132000800FAFF0133D2
:103B5A00000900FBFF020100000000000132000022
:103B6A00000000011D00F1FF090002000000000032
:103B7A00000132000000000001FF00F6FFCEFF0145
:103B8A005601F2FFBDFF02010000000000013200F1
:103B9A00000000000186023D01DF00020000000073
:103BAA00000001320000000000019300F7FFE4FF6B
:103BBA00018200F9FFE7FF010701F3FFCDFF019F33
:103BCA0000F9FFE1FF01C500FAFFD9FF01D400FAAD
:103BDA00FFD6FF01DD00FCFFD4FF02010000000058
:103BEA000001320000000000018F01F7FFEF000220
:103BFA0000000000000001320000000000017F0008
:103C0A000B00E9FF014600F2FFFFFF017D00F6FF0E
:103C1A0017000141000D0001000100000000000032
:103C2A00020100000000000132000000000001173C
:103C3A0000F2FF0000020000000000000132000054
:103C4A00000000016A00FDFFEBFF0172000900EBB2
:103C5A00FF015D00050012000201000000000001E2
:103C6A00320000000000012700F4FF1400020000E7
:103C7A000000000001320000000000014F01BDFFFA
:103C8A00FFFF0201000000000001320000000000F6
:103C9A00016E004000EFFF02000000000000013248
:103CAA000000000000010901CBFF00000201000032
:103CBA0000000001320000000000016F003F00EB2D
:103CCA00FF020000000000000132000000000001B5
:103CDA00FA00CEFF000002010000000000013200DD
:103CEA00000000000179003A002C000200000000E8
:103CFA0000000132000000000001F2021D009400E1
:103D0A00020100000000000132000000000001046E
:103D1A0001D5FF6AFF020000000000000132000026
:103D2A0000000001F7021D009500020100000000DA
:103D3A000001320000000000011D01FCFF55FF02D6
:103D4A000000000000000132000000000001BF0274
:103D5A001B008A000201000000000001320000007E
:103D6A000000012B0002001A0002000000000000FF
:103D7A0001320000000000012800FFFF08000124B2
:103D8A0000FEFF0700010700FFFF0100010700FF17
:103D9A00FF0100010E00FEFFFEFF012800FCFFF9F3
:103DAA00FF020100000000000132000000000001D3
:103DBA001800F2FFFEFF02000000000000013200BE
:103DCA0000000000012400020007000115000300A2
:103DDA000300010B00020001000141000D00000078
:103DEA00020100000000000132000000000001EFA3
:103DFA00007AFF33000200000000000001320000D8
:103E0A000000000126000700FDFF0126000700FD53
:103E1A00FF0132000800FAFF012E000700FAFF0135
:103E2A0035000700F8FF0136000600F7FF013600EB
:103E3A000600F7FF013A000600F6FF013800050008
:103E4A00F6FF013B000400F5FF0139000300F5FF0E
:103E5A000133000200F6FF0137000100F5FF012DD2
:103E6A00000000F7FF013200FFFFF6FF012D00FC02
:103E7A00FFF8FF012600FDFFF9FF012300FBFFFB0E
:103E8A00FF011D00FBFFFDFF012200FAFFFDFF01FC
:103E9A001E00FAFFFFFF011E00FAFFFFFF011E00CE
:103EAA00FAFF0100012300F9FF0100013F00F4FFBE
:103EBA000400014300F4FF0600013900F7FF070080
:103ECA00013500F8FF07000201000000000001327E
:103EDA00000000000001F30085003C000200000021
:103EEA000000000132000000000001D600D7FFF4F4
:103EFA00FF02010000000000013200000000000182
:103F0A0040002500F5FF0200000000000001320019
:103F1A000000000001C100DBFF0B000201000000ED
:103F2A00000001320000000000016B003F000C009D
:103F3A000200000000000001320000000000014001
:103F4A0001400000000136013E0000000176027EB9
:103F5A0000FDFF014C000F00FEFF012D000900FFCC
:103F6A00FF0110000300FFFF010B000100FEFF012B
:103F7A0010000100FDFF0119000000FBFF012800ED
:103F8A00FFFFF8FF010B00FFFFFEFF010B00FEFF22
:103F9A00FFFF012D00F7FFFFFF015000F0FFFFFFB9
:103FAA00017B0281FF0100013B01C1FF01000140C9
:103FBA0001C0FF0300010B00FEFF0100010E00FE1D
:103FCA00FF0200011500FFFF0400011900000005AF
:103FDA00000119000100050001150001000400019B
:103FEA00120002000300011000030001000100009A
:103FFA000000000002010000000000013200000081
:10400A0000000147001500DBFF020000000000006D
:10401A000132000000000001BA00EFFFDFFF015982
:10402A0000F8FFF0FF015E00F8FFEFFF0201000059
:10403A0000000001320000000000016D00EBFFC229
:10404A00FF02000000000000013200000000000131
:10405A006200FBFFEDFF016000FEFFEDFF01600063
:10406A00FEFFEDFF015F00FFFFEDFF01C30001004E
:10407A00D9FF01B9000100DBFF02010000000000C6
:10408A0001320000000000015B014300C50002008C
:10409A0000000000000132000000000001C800D842
:1040AA00FFFFFF02010000000000013200000000D3
:1040BA0000015002EBFE22FF020000000000000196
:1040CA00320000000000012800080001000126005B
:1040DA000700030001270006000500012300050070
:1040EA00050001550008000F0001620008001200D7
:1040FA0001B6000D0022000201000000000001329A
:10410A00000000000001F20156001E01020000003A
:10411A0000000001320000000000010C01E8FF303D
:10412A00000201000000000001320000000000014E
:10413A0054002100DAFF02000000000000013200F2
:10414A000000000001FF00EAFF2E0002010000004B
:10415A00000001320000000000019B00B4FFCAFF0A
:10416A0002000000000000013200000000000111FE
:10417A0001E6FF30000201000000000001320000E9
:10418A0000000001EC008A001F000200000000008D
:10419A000001320000000000011C01E9FF340002A6
:1041AA0001000000000001320000000000017C0054
:1041BA00E6FFBAFF02000000000000013200000022
:1041CA00000001C201A6FF01000201000000000078
:1041DA0001320000000000019C005C00F0FF0200B8
:1041EA0000000000000132000000000001C701A524
:1041FA00FF0200020100000000000132000000007E
:10420A000001E60068005B000200000000000001F7
:10421A0032000000000001BD01A7FF0100020100F9
:10422A000000000001320000000000019400590063
:10423A00FFFF020000000000000132000000000041
:10424A00018C01F2FFB2FF020100000000000132FE
:10425A000000000000017C00190046000200000076
:10426A0000000001320000000000018701F2FFB3E4
:10427A00FF020100000000000132000000000001FE
:10428A00CB00AAFF56000200000000000001320025
:10429A0000000000018E01F0FFB2FF0201000000E1
:1042AA0000000132000000000001DD007400C0FFC0
:1042BA00020000000000000132000000000001BD01
:1042CA0001A7FF0100020100000000000132000006
:1042DA00000000019B004B003700020000000000B4
:1042EA000001320000000000014100F5FF07000252
:1042FA000100000000000132000000000001170068
:10430A000000F2FF0200000000000001320000007D
:10431A000000014600FFFF0E00020100000000003D
:10432A00013200000000000119000100F1FF020043
:10433A000000000000013200000000000144000BF0
:10434A000008000201000000000001320000000025
:10435A000001B60093FF0100020000000000000106
:10436A0032000000000001350007000800020100C9
:10437A000000000001320000000000011B000200E2
:10438A00F0FF0200000000000001320000000000FF
:10439A00013900F7FF0700020100000000000132A6
:1043AA00000000000001F2007B004D000200000046
:1043BA0000000001320000000000014400F5FF087F
:1043CA0000020100000000000132000000000001AC
:1043DA00A000A0FFF9FF0200000000000001320067
:1043EA0000000000018A01EFFFB3FF020100000094
:1043FA00000001320000000000015C001A00CFFF3B
:10440A000200000000000001320000000000011359
:10441A0001E7FF3100020100000000000132000044
:10442A00000000016D002200C8FF02000000000029
:10443A000001320000000000013900F7FF07000206
:10444A000100000000000132000000000001A40089
:10445A006200F9FF020000000000000132000000C3
:10446A000000014E0007000E0002010000000000DB
:10447A000132000000000001D40086FF240002007F
:10448A0000000000000132000000000001410000AD
:10449A00000D0002010000000000013200000000CF
:1044AA000001770008004700020000000000000138
:1044BA00320000000000013100070007000201007D
:1044CA000000000001320000000000014302620007
:1044DA00B3FE0200000000000001320000000000EC
:1044EA00015101F2FFBEFF0201000000000001328B
:1044FA000000000000016B0019003B0002000000F0
:10450A0000000001320000000000014B01F3FFBF70
:10451A00FF0201000000000001320000000000015B
:10452A0045002300160002000000000000013200CE
:10453A0000000000014B01F3FFBFFF020100000071
:10454A0000000132000000000001FD009EFF74001F
:10455A0002000000000000013200000000000155C6
:10456A0001F3FFBDFF02010000000000013200005C
:10457A000000000118000300F2FF02000000000022
:10458A00000132000000000001FB001A00D5FF0202
:10459A0001000000000001320000000000017B0061
:1045AA003000380002000000000000013200000064
:1045BA000000018101B3FF010002010000000000B8
:1045CA00013200000000000186004F00F2FF0200E5
:1045DA00000000000001320000000000017C01B46C
:1045EA00FF0000020100000000000132000000008C
:1045FA0000017F004C0000000200000000000001E2
:10460A0032000000000001F4001700D5FF0201008B
:10461A000000000001320000000000015600F3FF14
:10462A003200020000000000000132000000000019
:10463A0001ED001600D6FF02010000000000013261
:10464A00000000000001C400ECFF7400020000003A
:10465A0000000001320000000000018101B3FF00E8
:10466A000002010000000000013200000000000109
:10467A00FD00580084FF0200000000000001320023
:10468A0000000000016D01B7FF00000201000000F8
:10469A0000000132000000000001E400490074003B
:1046AA00020000000000000132000000000001EDDD
:1046BA00001600D6FF0201000000000001320000CF
:1046CA00000000015B00D3FFE1FF020000000000D0
:1046DA000001320000000000013D000A000700024C
:1046EA000100000000000132000000000001160075
:1046FA00F4FF060002000000000000013200000082
:10470A0000000143000C00FAFF0201000000000053
:10471A0001320000000000011700F4FF0700020048
:10472A000000000000013200000000000147000202
:10473A0000F2FF0201000000000001320000000048
:10474A0000018500B1FF0D00020000000000000119
:10475A00320000000000013E000300F4FF020100E5
:10476A000000000001320000000000017F00040088
:10477A004C000200000000000001320000000000AE
:10478A00015001F3FFBEFF020100000000000132E8
:10479A0000000000000102000000FFFF020000000C
:1047AA00000000013200000000000143000900F689
:1047BA00FF020100000000000132000000000001B9
:1047CA001600F7FF0A000200000000000001320094
:1047DA00000000000124000600040002010000009D
:1047EA00000001320000000000010D00FAFFFBFF8B
:1047FA000200000000000001320000000000010277
:10480A00011B00D4FF020100000000000132000079
:10481A000000000102000000FFFF0200000000008B
:10482A0000013200000000000135000800F9FF0213
:10483A000100000000000132000000000001CB006E
:10484A00EBFF7800020000000000000132000000C7
:10485A000000012000050004000201000000000021
:10486A00013200000000000182004E000000020038
:10487A000000000000013200000000000141000BAE
:10488A0000F9FF02010000000000013200000000F0
:10489A000001C30001008BFF0200000000000001BC
:1048AA00320000000000013900080008000201007F
:1048BA00000000000132000000000001AF0E3200CB
:1048CA00CF080201000000000001320000000000D1
:1048DA000201000000000000000000000000E9CF13
:1048EA00E4FFEACFE4FFE652EEEC34F0E6529EA093
:1048FA0041D29E90FE0ECF6E3D0ECE6E91C4B2F4A2
:10490A000401B36B010EB46F3FEC38F014E0D880A9
:10491A00000E9255000E9355190E9455000E95559A
:10492A0005E2926B936B946B956B05D09207000E20
:10493A00935B945B955B3FEC38F001E0B46B7805D0
:10494A0004E0050E785D01E0A3D09F5103E1A05178
:10495A0001E168D1050E785D1FE19F5146E048EC00
:10496A0038F001E19F6B63EC38F07CAF02D0800E27
:10497A007C271BEC37F0A4AF02D06CEC38F075EC56
:10498A0038F080AF02D0800E80272CEC37F0A8AF29
:10499A002CD07EEC38F029D09F5110E063EC38F02F
:1049AA007CAF02D0800E7C271BEC37F0A4AF06D078
:1049BA006CEC38F048EC38F001E19F6BA05115E03F
:1049CA0075EC38F080AF02D0800E80272CEC37F0DF
:1049DA00A8AF0BD07EEC38F08D07000E8E5B8F5B94
:1049EA00905BE2EC38F001E1A06B9F5102E1A0512B
:1049FA0001E0B46BB35101E115D1E65110E191A385
:104A0A0002D08C8E01D08C9E91A702D08C8A01D0C4
:104A1A008C9AB2B18C8CB2A512D08C8810D0E605D3
:104A2A000EE191A302D08B8401D08B9491A702D07E
:104A3A00898401D08994B2B18B8CB2B5898AB2A12A
:104A4A000DD091A306D0AA07000EAB5BAC5BAD5BA1
:104A5A0005D0AA2B000EAB23AC23AD23B2A50DD0F3
:104A6A0091A706D0AE07000EAF5BB05BB15B05D075
:104A7A00AE2B000EAF23B023B123E65103E18C9C89
:104A8A008C98D0D0E60501E0CDD08B9C899ACAD00B
:104A9A00030E785D5AE1F3513AE09905DF6E9651BB
:104AAA0097111AE131EC38F0EF500E01EA6AAC25A1
:104ABA00E96EAD51EA22EF6A28EC3AF0EE6AED6A45
:104ACA002EEC3AF0EE6AED6A31EC38F0EF6A4DEC12
:104ADA003AF0EE6AED6A1BD028EC3AF09AC4EEFF7F
:104AEA009BC4EDFF2EEC3AF096C4EEFF97C4EDFF9F
:104AFA0031EC38F098C4EFFF4DEC3AF0EE50ED107F
:104B0A0006E14DEC3AF096C4EEFF97C4EDFF0E01B4
:104B1A00B6510401985D01E085D00E01B05104013F
:104B2A0096190CE10E01B1510401971907E1010E22
:104B3A00E76FE36BF25176E08A9874D0E76B010E67
:104B4A00E36FF2516FE08A886DD0040E785D2CE134
:104B5A009C5122E09DC430F09EC431F0D89031328D
:104B6A003032D890313230323050BB6EF0C432F02D
:104B7A00F1C433F0040ED89032363336E804FBE140
:104B8A00300E3216000E3316CF0EBA143210306EB3
:104B9A0033C031F0E85003D0BB6ACF0EBA14BA6EF4
:104BAA000401010EB46F3ED0060E785D3BE19151CF
:104BBA00000823E2E65102E18D9001D08C92910522
:104BCA0003E18D848D82898C020E915D03E18D84CF
:104BDA008D82899C030E915D03E18D948D82899C5F
:104BEA00040E915D03E18D848D92899C050E915D81
:104BFA0009E18D948D92899C05D0E65102E18D8060
:104C0A0001D08C829851000806E2E65102E18B92AB
:104C1A0007D0899205D0E65102E18B8201D08982C0
:104C2A003DEC37F0B45101E19BD03FEC38F001E0A4
:104C3A0097D0786BA95101E08FD0B6C478F4B7C485
:104C4A0079F4B8C47AF4B9C47BF4BAC47CF4BBC4AA
:104C5A007DF4BCC47EF4BDC47FF4BEC480F4BFC47A
:104C6A0081F4C0C482F4C1C483F4C2C484F4C3C44A
:104C7A0085F4C4C486F4C5C487F4C6C488F4C7C41A
:104C8A0089F4C8C48AF4C9C48BF4CAC48CF4CBC4EA
:104C9A008DF4CCC48EF4CDC48FF4CEC490F4CFC4BA
:104CAA0091F4D0C492F4D1C493F4D2C494F4D3C48A
:104CBA0095F4D4C496F4D5C497F4D6C498F4D7C45A
:104CCA0099F4D8C49AF4D9C49BF4DAC49CF4DBC42A
:104CDA009DF4DCC49EF4DDC49FF4DEC4A0F4B66B7C
:104CEA00B76BB86BB96BBA6BBB6BBC6BBD6BBE6B8E
:104CFA0087EC38F0CF6BD06BD16BD26BD36BD46BA4
:104D0A00D56BD66BD76BD86BD96BDA6BDB6BDC6B7D
:104D1A00DD6BDE6B780503E0050E785D1AE19CA178
:104D2A0004D0A16BA26BA36BA46B9CA304D0A56B4C
:104D3A00A66BA76BA86B50EC3AF003E0010E9F6FCD
:104D4A0001D09F6BE2EC38F003E0010EA06F01D0B6
:104D5A00A06B010EA96F04D0926B936B946B956B49
:104D6A008050800B05E0EE5105E08150010B02E115
:104D7A00010EED6FE552E552E5CFDAFFE7CFD9FF35
:104D8A00E552E5CFEAFFE5CFE9FF1100D9CFE6FF0B
:104D9A00DACFE6FFE1CFD9FFE2CFDAFFE652DF6AE8
:104DAA00DFCF00F0020EE76E0018E8AE02D0E7345B
:104DBA0002D0E750005C3CE2DFCFE9FFEA6AE9BED5
:104DCA00EA68D890E936EA36D890E936EA36790EB2
:104DDA00E926040EEA22010EEE6EEE6AEE6AEE6A29
:104DEA00DFCFE9FFEA6AE9BEEA68D890E936EA362F
:104DFA00D890E936EA36890EE926040EEA22EE6AE6
:104E0A00EE6AEE6AEE6ADFCFE9FFEA6AE9BEEA68AD
:104E1A00D890E936EA36D890E936EA36810EE9269C
:104E2A00040EEA22EE6AEE6AEE6AEE6ADF2AB8D762
:104E3A000401786B0401916B0401926B936B946B80
:104E4A00956B0401966B976B0401986B0401996B3F
:104E5A0004019A6B9B6B0401010EA96FCD82CD9E52
:104E6A00CD9CCD9ACD98CD96CD94FE0ECF6E3D0EAB
:104E7A00CE6ECD809F809E909D8092809F9C010ED9
:104E8A00E66EE66A6EEC43F0E552E552010EE66E16
:104E9A000B0EE66E6EEC43F0E552E5528D84969465
:104EAA008D829692898C929C8D8096908B82949218
:104EBA008C9C959C8C9E959E8C9895988C9A959A8C
:104ECA00949E828E00000000000000000000000096
:104EDA0000000000000000000000000000000000C8
:104EEA0000000000000000000000948E829E040171
:104EFA00010EF26F0401010EF36F8A989398899656
:104F0A0092960401010EE36F0401E66B0401010E9F
:104F1A00E76F0401EC6B0401E86BE96BEA6BEB6B7E
:104F2A000401ED6B9380F19E0401010EEE6F9396DE
:104F3A008196A8EC34F0E552E552E5CFDAFFE7CFE7
:104F4A00D9FF1200EEEC34F081EC36F094EC3AF032
:104F5A00E66AD950010F79EC35F0030E9EEC3AF06F
:104F6A0001E0B7D0DF0426E155EC3AF00CE1040188
:104F7A00010EF26FF36B8DEC37F002E2E16AE55253
:104F8A00E16E00500FD0E3EC35F0010EEE1806E1A9
:104F9A00ED5004E10401F26B010E03D00401010E8D
:104FAA00F26FF36F000EE66EE66AE7C4E6FFA2EC64
:104FBA0038F08DD0020EDF5C30E155EC3AF009E1B1
:104FCA000401E66B96909492959C959E9598959A75
:104FDA001DD0E3EC35F0010EEE180DE1ED500BE1BA
:104FEA000401010EABEC38F094949294949C929A3A
:104FFA00959292926CD0E3EC35F0020EEE1867E1CE
:10500A00ED5065E10401020EABEC38F09484928411
:10501A00948C928A958292825AD0040EDF5C07E1C0
:10502A00010EDBCFB0FE020EDBCFB1FE50D0050E73
:10503A00DF5C07E1010EDBCFAEFE020EDBCFAFFE77
:10504A0046D0080EDF5C0FE1E3EC35F0180ED8808D
:10505A00EE54000EED5403E2180EBBEC38F0010ECC
:10506A00DBCFAAFE34D0090EDF5C0FE1E3EC35F0AA
:10507A00060ED880EE54000EED5403E2060EBBEC89
:10508A0038F0010EDBCFABFE22D00A0EDF5C03E163
:10509A00C2EC38F009D00B0EDF5C03E1C2EC38F049
:1050AA0016D00C0EDF5C07E1010EDBCFB4FE020E58
:1050BA00DBCFB5FE0CD00D0EDF5C09E155EC3AF002
:1050CA0004E00401010EEE6F02D00401EE6BDAEC8B
:1050DA0042F0FEEC39F03DEF35F0EEEC34F0420EE2
:1050EA00E12402E3E168E6525AEC3AF0410E48EC58
:1050FA0039F0080F82EC3AF0100F82EC3AF0040F04
:10510A0079EC35F0070ED2EC34F0E66AD9500C0F80
:10511A0082EC3AF0140F86EC3AF0410FB7EC3AF011
:10512A0001E075D199EC36F002E318EC38F0C7ECDF
:10513A003AF002EC3AF00BE3040EDB68050EDB688A
:10514A00060EDB687F0EF36E070EF3CFDBFFA6ECCD
:10515A0039F005E1E7EC35F0EAEC36F003E04EEC25
:10516A0037F035E1040EDBCF0CF0050EDBCF0DF086
:10517A00060EDBCF0EF0070EDBCF0FF00C500D1032
:10518A000E100F1011E1140EDBCF10F0150EDBCF4D
:10519A0011F0160EDBCF12F0170EDBCF13F0105002
:1051AA0011101210131011E00C0EDBCF14F00D0EBB
:1051BA00DBCF15F00E0EDBCF16F00F0EDBCF17F09C
:1051CA00145015101610171002E1B48D20D1410E9B
:1051DA00DB50030805E2030EF36E410EF3CFDBFF4B
:1051EA00AAEC39F002E6F5EC34F009E251EC39F0B8
:1051FA00B4EC35F02BEC39F00BEC3AF008D0E7ECD4
:10520A0035F020EC38F02BEC39F0F4EC35F0EFEC1B
:10521A0036F0D950140F0BEC35F002E6F5EC34F009
:10522A0005E2A9EC35F034EC3AF004D004EC36F09F
:10523A0089EC3AF09CEC36F0410EDB50E76E3C0EFE
:10524A00E7CFDBFF320EDB6A330EDB6A340EDB6A32
:10525A00350EDB6A310EECEC38F0080F0BEC35F04A
:10526A0002E6F5EC34F007E2310EDB500209E76E94
:10527A00310EABEC3AF0AEEC39F002E6F5EC34F074
:10528A000BE2310EDB500809E76E310EE7CFDBFF88
:10529A0030EC39F0A9EC36F02BEC39F06DEC37F044
:1052AA001C0EEECFDBFFD950080F04EC39F0290EA3
:1052BA00EECFDBFF2A0EEECFDBFF2B0EEECFDBFFAE
:1052CA002C0EEECFDBFFE1EC39F0D950040F0CECD9
:1052DA0037F00C0F04EC39F02D0EEECFDBFF2E0E5B
:1052EA00EECFDBFF2F0EEECFDBFF300EEECFDBFF74
:1052FA00D950140F04EC39F0B6EC36F0010EF36E07
:10530A00180EF3CFDBFF0401A951FDE0180EDBCF25
:10531A00B6F4190EDBCFB7F41A0EDBCFB8F41B0EB6
:10532A00DBCFB9F41C0EDBCFBAF41D0EDBCFBBF416
:10533A001E0EDBCFBCF41F0EDBCFBDF4200EDBCF7D
:10534A00BEF4210EDBCFBFF4220EDBCFC0F4230E56
:10535A00DBCFC1F4240EDBCFC2F4250EDBCFC3F4BE
:10536A00260EDBCFC4F4270EDBCFC5F4280EDBCF25
:10537A00C6F4290EDBCFC7F42A0EDBCFC8F42B0EF6
:10538A00DBCFC9F42C0EDBCFCAF42D0EDBCFCBF466
:10539A002E0EDBCFCCF42F0EDBCFCDF4300EDBCFCD
:1053AA00CEF4310EDBCFCFF4320EDBCFD0F4330E96
:1053BA00DBCFD1F4340EDBCFD2F4350EDBCFD3F40E
:1053CA00360EDBCFD4F4370EDBCFD5F4380EDBCF75
:1053DA00D6F4390EDBCFD7F43A0EDBCFD8F43B0E36
:1053EA00DBCFD9F43C0EDBCFDAF43D0EDBCFDBF4B6
:1053FA003E0EDBCFDCF43F0EDBCFDDF4400EDBCF1D
:10540A00DEF4A96B0601E35102E0DAEC42F0420E47
:10541A00E15C02E2E16AE552E16E3DEF35F0EEEC65
:10542A0034F03E0EE12402E3E168E652E16EDE6A00
:10543A00D1EC39F097EC39F03D0E48EC39F0040F15
:10544A0082EC3AF00C0F82EC3AF0080F82EC3AF058
:10545A00100F86EC3AF03D0FB7EC3AF001E01FD19D
:10546A00A6EC39F010E0040EDBCF04F0050EDBCF1A
:10547A0005F0060EDBCF06F0070EA3EC3AF005E1C5
:10548A004EEC37F002E1B48D0AD13D0EDB50030831
:10549A0005E2030EF36E3D0EF3CFDBFF3D0EDB504C
:1054AA00E76E380EE7CFDBFF2E0EDB6A2F0EDB6AC4
:1054BA00300EDB6A310EDB6A2D0EECEC38F0040F8D
:1054CA000BEC35F002E6F5EC34F00BE22D0EDB5076
:1054DA000209E76E2D0EE7CFDBFF3CEC39F0C3EC97
:1054EA0036F0D950080F0BEC35F002E6F5EC34F043
:1054FA0007E22D0EDB500809E76E2D0EABEC3AF0F1
:10550A00AEEC39F002E6F5EC34F005E25CEC39F089
:10551A0034EC3AF004D08CEC35F089EC3AF09CEC9F
:10552A0036F0AAEC39F002E6F5EC34F009E251EC77
:10553A0039F0B4EC35F0D950080F01EC36F00AD046
:10554A00E7EC35F020EC38F0D950080F04EC39F0CC
:10555A00F4EC35F0D2EC37F0C7EC3AF0DFEC37F088
:10556A002BEC39F0B6EC36F0D9500C0F0CEC37F0C6
:10557A00080F04EC39F06DEC37F01C0EEECFDBFFB0
:10558A00290EDB6AC9EC38F0E1EC39F0050EF36E4E
:10559A00140EF3CFDBFF0401A951FDE0140EDBCF9B
:1055AA00B6F4150EDBCFB7F4160EDBCFB8F4170E30
:1055BA00DBCFB9F4180EDBCFBAF4190EDBCFBBF48C
:1055CA001A0EDBCFBCF41B0EDBCFBDF41C0EDBCFF7
:1055DA00BEF41D0EDBCFBFF41E0EDBCFC0F41F0ED0
:1055EA00DBCFC1F4200EDBCFC2F4210EDBCFC3F434
:1055FA00220EDBCFC4F4230EDBCFC5F4240EDBCF9F
:10560A00C6F4250EDBCFC7F4260EDBCFC8F4270E6F
:10561A00DBCFC9F4280EDBCFCAF4290EDBCFCBF4DB
:10562A002A0EDBCFCCF42B0EDBCFCDF42C0EDBCF46
:10563A00CEF42D0EDBCFCFF42E0EDBCFD0F42F0E0F
:10564A00DBCFD1F4300EDBCFD2F4310EDBCFD3F483
:10565A00320EDBCFD4F4330EDBCFD5F4340EDBCFEE
:10566A00D6F4350EDBCFD7F4360EDBCFD8F4370EAF
:10567A00DBCFD9F4380EDBCFDAF4390EDBCFDBF42B
:10568A003A0EDBCFDCF43B0EDBCFDDF43C0EDBCF96
:10569A00DEF4A96B0601E35102E0DAEC42F03E0EB9
:1056AA00E15C02E2E16AE552E16E3DEF35F0EEECD3
:1056BA0034F0110EE12402E3E168E652E8EC34F03A
:1056CA00100E48EC39F0040F86EC3AF0080F86EC1D
:1056DA003AF0100F4DEC39F00E01B75101E17AD0D2
:1056EA00A6EC39F002E10601B48D0601B45101E0DD
:1056FA007ED0BDEC37F004E2F80E006EB90E61D030
:10570A0077EC37F002E637EC35F005E2D950040FB2
:10571A005FEC37F004D03CEC39F0A9EC36F043ECFE
:10572A0035F002E6D9EC35F004E2CA0E006EB90E85
:10573A0048D05CEC39F028EC35F004E29A0E006EA1
:10574A00B90E3FD0D7EC39F00C0F60EC35F009E315
:10575A008CEC35F0EAEC36F004E0740E006EB90E0B
:10576A0030D082EC37F002E637EC35F005E2D9505A
:10577A00080F5FEC37F004D00DEC39F0A9EC36F0E5
:10578A0043EC35F002E6D9EC35F004E2460E006E41
:10579A00B90E17D05CEC39F028EC35F004E2160E9D
:1057AA00006EB90E0ED0D7EC39F00C0F60EC35F064
:1057BA000BE38CEC35F0EAEC36F006E0F00E006E06
:1057CA00B80EBBEC3AF013D0100EDB50030802E21D
:1057DA00100EDB6A100E72EC39F002E2E16AE55251
:1057EA00E16E00500601E35102E0DAEC42F0110EDC
:1057FA00E15C02E2E16AE552E16E3DEF35F0EEEC82
:10580A0034F0250EE12402E3E168E6525AEC3AF05C
:10581A00180EDB6A90EC38F038EC38F0010EF36EB3
:10582A00200EF3CFDBFF210EDB6A220EDB6A230E8A
:10583A00DB6A240EDB6A99EC3AF0CEEC37F0040FFF
:10584A0086EC3AF0080F09EC39F0A6EC39F003E1DE
:10585A000601B48D93D10401A951FDE0200EDB04A9
:10586A000AE1F29E3FEC38F004E1785102E1200EA1
:10587A00DB6AF28EF3D7AAC404F0ABC405F0ACC459
:10588A0006F0ADC407F04FEC38F0040F7EEC35F0AB
:10589A00E4EC37F0AEC404F0AFC405F0B0C406F0CF
:1058AA00B1C407F04FEC38F0080F7EEC35F0F1EC9C
:1058BA0037F0AEEC39F002E6F5EC34F005E230EC04
:1058CA0039F0D0EC36F004D0D9500C0F35EC36F064
:1058DA00AAEC39F002E6F5EC34F00FE2C5EC39F047
:1058EA00180E18C0DBFF190E19C0DBFF1A0E1AC0FA
:1058FA00DBFF1B0E1BC0DBFF09D0D950100F04ECD5
:10590A0039F0180EEECFDBFF6DEC37F060EC36F0B5
:10591A0002E6D9EC35F013E3180EDBCF1DF0190EB1
:10592A00DBCF1EF01A0EDBCF1FF01B0EDBCF20F0F1
:10593A002034000E201802E6D9EC35F004E2C00E3D
:10594A00006EB80E96D06BEC36F0DBCF03F0D95070
:10595A00140F04EC39F0030EEBCFF3FF0350F318E6
:10596A00E8AE02D0F33408D0EE50005CEE50015895
:10597A00EE500258EE50035872E2A9EC35F0ABEC47
:10598A0034F050EC36F004E28D0E006EB80E71D091
:10599A007DEC39F0180F60EC35F001E2D1D0180E29
:1059AA00DBCF04F0190EDBCF05F01A0EDBCF06F0C1
:1059BA001B0EA3EC3AF001E1C3D06BEC36F0ABEC72
:1059CA0034F043EC35F002E637EC35F006E2C4EC8D
:1059DA0035F002E637EC35F029E3AEEC39F002E6B1
:1059EA00F5EC34F006E2C4EC35F002E637EC35F0BB
:1059FA000CE343EC35F002E637EC35F00BE2AAECA7
:105A0A0039F002E6F5EC34F005E2C5EC39F0FEECCB
:105A1A0037F00ED0AEEC39F002E6F5EC34F008E2DD
:105A2A00AAEC39F002E6F5EC34F002E2E1EC39F0E6
:105A3A001AEC3AF0210FA0EC39F002E2E16AE552E1
:105A4A00E16E00508CEC35F0D950210F3BEC36F06A
:105A5A00E4EC37F097EC39F0A9EC35F06FD06BEC49
:105A6A0036F0ABEC34F050EC36F006E25A0E006E2B
:105A7A00B80EBBEC3AF082D07DEC39F0140F60EC32
:105A8A0035F05EE35EEC3AF05BE0A9EC35F0ABECA6
:105A9A0034F0C4EC35F002E637EC35F006E243ECBC
:105AAA0035F002E637EC35F029E3AAEC39F002E6E4
:105ABA00F5EC34F006E243EC35F002E637EC35F06B
:105ACA000CE3C4EC35F002E637EC35F00BE2AEEC51
:105ADA0039F002E6F5EC34F005E230EC39F0FEEC90
:105AEA0037F012D0AAEC39F002E6F5EC34F00CE209
:105AFA00AEEC39F002E6F5EC34F006E2D9500C0FC0
:105B0A00E96E000E6AEC35F0030EE66ED950210FED
:105B1A00A7EC3AF00C0FA0EC39F002E2E16AE55288
:105B2A00E16E0050E7EC35F0D950210F3BEC36F02E
:105B3A00F1EC37F022EC39F06BEC36F0ABEC34F0E8
:105B4A00D9501C0F04EC39F00A0E20EC3AF007E2A7
:105B5A000A0EF36E1C0EF3CFDBFF38EC38F01AECAA
:105B6A003AF00C0FA0EC39F002E2E16AE552E16E7C
:105B7A0000500601E35102E0DAEC42F0250EE15C46
:105B8A0002E2E16AE552E16E3DEF35F0EEEC34F007
:105B9A00190EE12402E3E168E6525AEC3AF0180ED3
:105BAA0048EC39F00C0F82EC3AF0100F86EC3AF020
:105BBA00180F4DEC39F0180EDB50030805E2030EFE
:105BCA00F36E180EF3CFDBFFA6EC39F002E1060103
:105BDA00B48D51EC39F0DBCF03F0D9500C0F01EC46
:105BEA0036F09CEC36F08CEC35F0D950100F3BECCB
:105BFA0036F0D2EC37F077EC37F002E637EC35F0D6
:105C0A0005E2D950040F35EC36F004D03CEC39F0FB
:105C1A00D0EC36F0BDEC37F004E2F80E006EB90EA7
:105C2A004ED060EC36F002E6D9EC35F004E2CA0E4A
:105C3A00006EB90E44D0A9EC35F028EC35F004E238
:105C4A009A0E006EB90E3BD0D7EC39F0140F60EC07
:105C5A0035F007E35EEC3AF004E0740E006EB90E1C
:105C6A002ED082EC37F002E637EC35F005E2D95057
:105C7A00080F35EC36F004D00DEC39F0D0EC36F0E4
:105C8A0060EC36F002E6D9EC35F004E2460E006E1E
:105C9A00B90E15D0A9EC35F028EC35F004E2160E51
:105CAA00006EB90E0CD0D7EC39F0140F60EC35F059
:105CBA0009E35EEC3AF006E0F00E006EB80EBBECBB
:105CCA003AF00DD00601B4510AE1180E72EC39F01F
:105CDA0002E2E16AE552E16E0050DAEC42F0190E96
